:100000000C946A000C9492000C9492000C94920050
:100010000C9492000C9492000C9492000C944E0656
:100020000C9492000C9492000C9492000C94920008
:100030000C9492000C9492000C9492000C949200F8
:100040000C94F4020C9492000C9492000C94920084
:100050000C9492000C9492000C9492000C949200D8
:100060000C9420050C9492001F1C1F1E1F1E1F1FA6
:100070001E1F1E1F00000000240027002A00000091
:100080000000250028002B000000000023002600AF
:10009000290004040404040404040202020202020B
:1000A000030303030303020102040810204080013C
:1000B000020408102001020408102080000000083B
:1000C000000201000003040700000000000000001F
:1000D0000000DC1311241FBECFEFD8E0DEBFCDBF80
:1000E00023E0A8E8B1E001C01D92A435B207E1F712
:1000F00011E0A0E0B1E0E0E5F2E302C005900D926E
:10010000A838B107D9F710E0CAE6D0E004C02197BB
:10011000FE010E941417C936D107C9F70E94CB0906
:100120000C9426190C940000CF92DF92EF92FF926C
:100130000F931F93CF93DF936C017A018B01C0E083
:10014000D0E0CE15DF0589F0D8016D918D01D60183
:10015000ED91FC910190F081E02DC6010995892B6C
:1001600011F47E0102C02196ECCFC701DF91CF913F
:100170001F910F91FF90EF90DF90CF900895833003
:1001800081F028F4813099F08230A1F00895873011
:10019000A9F08830B9F08430D1F4809180008F7D4F
:1001A00003C0809180008F7780938000089584B58C
:1001B0008F7702C084B58F7D84BD08958091B00093
:1001C0008F7703C08091B0008F7D8093B000089539
:1001D0003FB7F8948091040290910502A091060225
:1001E000B091070226B5A89B05C02F3F19F00196D4
:1001F000A11DB11D3FBFBA2FA92F982F8827820FAD
:10020000911DA11DB11DBC01CD0142E0660F771FFC
:10021000881F991F4A95D1F7089585ED8093BC00FA
:100220008091BC0084FDFCCF109240020895409163
:10023000BE01262F30E0240F311D21323105DCF4C0
:10024000209140022430C9F4FC0180E090E0861740
:1002500058F43091BE012191DC01A456BE4FA30F8A
:10026000B11D2C930196F3CF8091BE01680F60936E
:10027000BE0180E0089581E0089582E00895089528
:10028000E091190280911802E81730F4F0E0ED5186
:10029000FE4F808190E008958FEF9FEF0895909139
:1002A000190280911802981750F4E92FF0E0ED51EF
:1002B000FE4F208130E09F5F9093190202C02FEF24
:1002C0003FEFC90108958091180290E02091190232
:1002D000821B91090895CF92DF92EF92FF920F93C4
:1002E0001F93CF93DF937C01262F972F8A01809154
:1002F0004102882391F0C62FD72F6E01C40ED51E60
:10030000CC15DD0571F06991D701ED91FC9101905B
:10031000F081E02DC7010995F3CF642F822F0E9451
:100320001701C801DF91CF911F910F91FF90EF90BE
:10033000DF90CF900895CF93DF931F92CDB7DEB7B4
:100340006983209141022223D1F02091640220325E
:1003500040F021E030E0FC013383228380E090E034
:1003600015C080914202E82FF0E0ED5BFD4F9981CE
:1003700090838F5F809342028093640205C061E0A6
:10038000CE0101960E94170181E090E00F90DF916D
:10039000CF910895089580E090E008950E9411198A
:1003A000EF92FF920F931F93CF93DF93EC017B01AA
:1003B0008A0188819981009729F02A813B8124173D
:1003C0003507F8F4B8016F5F7F4F0E944718009718
:1003D00059F0998388831B830A832C813D81232BC9
:1003E00081F4FC0110820DC088819981009711F081
:1003F0000E94AF17198218821D821C821B821A82EA
:1004000007C01D830C83B701888199810E941F1941
:10041000CE01DF91CF911F910F91FF90EF90089542
:10042000FC011182108213821282158214826115DE
:10043000710551F0FB0101900020E9F73197AF0100
:10044000461B570B0C94D0010895CF93DF93282FB0
:1004500030E0F901E454FF4F8491F901E955FF4F71
:10046000D491F901EE56FF4FC491CC2391F0811144
:100470000E94BF00EC2FF0E0EE0FFF1FE857FF4F88
:10048000A591B491EC91ED2381E090E021F480E01E
:1004900002C080E090E0DF91CF9108951F93CF9349
:1004A000DF93282F30E0F901E454FF4F8491F901E4
:1004B000E955FF4FD491F901EE56FF4FC491CC237B
:1004C000C9F0162F81110E94BF00EC2FF0E0EE0F53
:1004D000FF1FE258FF4FA591B4918FB7F894111107
:1004E00005C09C91ED2FE095E92302C0EC91ED2B26
:1004F000EC938FBFDF91CF911F910895CF93DF933E
:1005000090E0FC01E955FF4F2491FC01EE56FF4FAE
:100510008491882361F190E0880F991FFC01EC58C9
:10052000FF4FC591D491FC01E258FF4FA591B491C2
:10053000611109C09FB7F894888120958223888330
:10054000EC912E230BC0623061F49FB7F894388190
:10055000822F809583238883EC912E2B2C939FBF31
:1005600006C08FB7F894E8812E2B28838FBFDF91C8
:10057000CF9108958F929F92AF92BF92CF92DF92C8
:10058000EF92FF926B017C010E94E8004B015C013D
:10059000C114D104E104F104F1F00E94E800DC018F
:1005A000CB0188199909AA09BB09883E9340A10586
:1005B000B10570F321E0C21AD108E108F10888EE14
:1005C000880E83E0981EA11CB11CC114D104E10463
:1005D000F10419F7DDCFFF90EF90DF90CF90BF903F
:1005E000AF909F908F9008951F920F920FB60F9229
:1005F00011242F933F938F939F93AF93BF93809139
:10060000880190918901A0918A01B0918B0130916C
:10061000030223E0230F2D3720F40196A11DB11D05
:1006200005C026E8230F0296A11DB11D20930302E9
:100630008093880190938901A0938A01B0938B01E4
:100640008091040290910502A0910602B0910702E8
:100650000196A11DB11D8093040290930502A09301
:100660000602B0930702BF91AF919F918F913F9186
:100670002F910F900FBE0F901F901895FC012481B1
:1006800031E03093410220936302109242021092B3
:1006900064028385682B85E692E00E949B0181E0DD
:1006A0000C94CC070F931F93CF938C01C62F0E94FD
:1006B0003E036C2F6460C8010E943E036C2F6B7F69
:1006C000C8010E943E0383EC90E00197F1F7CF91BF
:1006D0001F910F910895FF920F931F93CF93DF9374
:1006E0001F92CDB7DEB78C01F62E962F907F692F23
:1006F000642BC80149830E94520380E1F89EB00137
:1007000011244981642BC8010F90DF91CF911F9173
:100710000F91FF900C94520341E00E946B0381E023
:1007200090E00895CF92DF92EF92FF920F931F9384
:10073000CF93DF93EC0181E08093410288E68093C0
:100740006302109242021092640260E085E692E039
:100750000E949B0181E00E94CC07809140028111A0
:10076000FCCF81E08093400280933F029FEF909303
:100770003E0210923D0296E090933C0280931B0251
:1007800080911B02806D80931B0280911A02813040
:1007900061F410921A0280911B028093BB00809139
:1007A000BC0083FDF8CF85EC01C085EE8093BC00D2
:1007B000809140028130E1F380913D02873018F44E
:1007C00080913D0201C087E0ACE1B2E023EE31E070
:1007D000F9019E2F921B981718F49D919193F9CFD0
:1007E000109219028093180285E692E00E944F0150
:1007F0008F77982F92959F701AEF082F919F000D79
:10080000112485E692E00E944F019C01332794E079
:10081000359527959A95E1F7F82E129FF00C112443
:1008200085E692E00E944F019C01332744E0359514
:1008300027954A95E1F7E82E129FE00C112485E6F2
:1008400092E00E944F0185E692E00E944F019C01D8
:10085000332754E0359527955A95E1F7D82E129F06
:10086000D00C112485E692E00E944F019C013327B1
:1008700064E0359527956A95E1F7C82E129FC00C64
:10088000112485E692E00E944F019C01332774E019
:10089000359527957A95E1F7129F800D112488836D
:1008A000C982DA82EB82FC820D83CE01DF91CF9187
:1008B0001F910F91FF90EF90DF90CF9008950F93CD
:1008C0001F93CF938C0181E08093410288E680934F
:1008D0006302109242021092640260E085E692E0A8
:1008E0000E949B01F8012581CAE0822F6C2F0E9493
:1008F0009B16682F660F860F682F660F620F85E6BE
:1009000092E00E949B01F8012481822F6C2F0E94AB
:100910009B16682F660F860F682F660F620F85E69D
:1009200092E00E949B01F8012381822F6C2F0E948C
:100930009B16682F660F860F682F660F620F85E67D
:1009400092E00E949B0160E085E692E00E949B019C
:10095000F8012281822F6C2F0E949B16682F660F50
:10096000860F682F660F620F85E692E00E949B015A
:10097000F8012181822F6C2F0E949B16682F660F31
:10098000860F682F660F620F85E692E00E949B013A
:10099000F8012081822F6C2F0E949B16682F660F12
:1009A000860F682F660F620F85E692E00E949B011A
:1009B00081E0CF911F910F910C94CC07FC019081A5
:1009C00090539A3008F090E0818180532AE0929F02
:1009D000800D11240895803D27E0920710F0805D7E
:1009E000974050E0E8E6F0E021E02E1B322F3E0F6A
:1009F000361728F43491430F511D3196F7CF6330E9
:100A000038F09C0123703327232B11F44F5F5F4F85
:100A10002DE631E0829FB001839F700D929F700D93
:100A20001124615071099C012D5F3F4F3695279528
:100A300036952795CB01820F931F840F951F08953C
:100A40001F920F920FB60F9211242F933F934F9343
:100A50005F936F937F938F939F93AF93BF93EF9326
:100A6000FF938091B900887F803609F49CC068F5B7
:100A7000883209F45BC090F4803109F454C038F432
:100A8000882309F4F6C0883009F44DC0F6C08831D7
:100A900009F44CC0803209F45DC0EFC0803409F421
:100AA00068C048F4803309F455C0883309F0E5C0C4
:100AB00080933E02D8C0803509F44FC0883509F4D0
:100AC0005DC0883409F0D9C0D6C0883909F4C7C0E0
:100AD000A8F4883709F467C038F4883609F463C08D
:100AE000803709F460C0C9C0883809F4B8C08039BB
:100AF00009F45FC0803809F0C0C05BC0803B09F4D6
:100B000086C038F4803A09F466C0883A09F47FC098
:100B1000B4C0803C09F4A7C0883C09F4A4C0883B59
:100B200009F48AC0AAC080911B0210C090913D02B6
:100B300080913C02981770F5E0913D0281E08E0FA4
:100B400080933D02F0E0E45EFD4F80818093BB0026
:100B500085EC86C080933E028EC0E0913D0281E02C
:100B60008E0F80933D028091BB00F0E0E45EFD4F6C
:100B7000808390913D0280913C026EC0E0913D02E5
:100B800081E08E0F80933D028091BB00F0E0E45E37
:100B9000FD4F808380913F0281116DC081E0809381
:100BA0001A0284EA61C083E0809340021092E2015D
:100BB000CFCF8091E201803208F051C0E091E20194
:100BC00081E08E0F8093E2018091BB00F0E0EE5354
:100BD000FE4F8083BDCF85EC8093BC001092400215
:100BE0008091E201803230F4E091E201F0E0EE53D6
:100BF000FE4F10826091E20170E0E091C001F0913F
:100C0000C10182EC91E009951092E20136C084E0C6
:100C1000809340021092BF011092BE01E091BC018E
:100C2000F091BD0109958091BE01811105C081E05F
:100C30008093BE0110929C01E091BF0181E08E0F74
:100C40008093BF01F0E0E456FE4F80818093BB00AB
:100C50009091BF018091BE01981708F479CF85E883
:100C60008093BC000AC085EC8093BC0010924002C7
:100C700004C010923E020E940D01FF91EF91BF91BE
:100C8000AF919F918F917F916F915F914F913F9124
:100C90002F910F900FBE0F901F9018951F920F92DB
:100CA0000FB60F9211242F933F934F935F936F933F
:100CB0007F938F939F93AF93BF93EF93FF93809115
:100CC00072020E94250220917602309177022F5FF6
:100CD0003F4F3093770220937602909175029536BC
:100CE00018F096E090937102909171029430C9F1DE
:100CF00028F4923069F09330D1F05EC0953009F459
:100D000051C0963009F058C091E09093420351C011
:100D1000811152C02091760230917702243631053C
:100D200008F442C010924203109275021CC0813038
:100D300009F042C0E091750291E09E0F9093750218
:100D4000F0E02091760230917702EE0FFF1FEF580E
:100D5000FD4F30872783109277021092760294E03D
:100D600029C0811117C0E091750291E09E0F909308
:100D70007502F0E02091760230917702EE0FFF1FAE
:100D8000EF58FD4F3087278310927702109276023A
:100D900093E010C02091760230917702253631051C
:100DA00058F007C0811108C01092770210927602A5
:100DB00003C095E090937102909174029923B9F069
:100DC00081110AC080917302882321F080917302FF
:100DD00061E009C02D9A0BC080917302882331F025
:100DE0008091730260E00E944E0201C02D98FF9135
:100DF000EF91BF91AF919F918F917F916F915F9193
:100E00004F913F912F910F900FBE0F901F9018950B
:100E1000CF92DF92EF92FF92CF93DF93EC01072EF8
:100E2000000C880B990B0E9408146B017C0120E0D8
:100E300030E040E45FE30E94671420E030E048E4E3
:100E400052E40E94E3150E945516C617D707D4F046
:100E500020E030E040EA5FE3C701B6010E9467147A
:100E600020E030E048E452E40E94E31520E030E066
:100E700040E85FE30E9477150E94551621E06C1749
:100E80007D070CF420E0822F90E0DF91CF91FF905E
:100E9000EF90DF90CF900895EF92FF921F93CF9342
:100EA000DF931F92CDB7DEB77C01162F79830E94A6
:100EB0004E02798189E0E816F104B9F04CF488E03B
:100EC000E816F104D9F410938C0170938D0116C0CB
:100ED0008AE0E816F10471F08BE0E816F10471F491
:100EE000109392017093930109C010938E01709337
:100EF0008F0104C010939001709391010F90DF91C6
:100F0000CF911F91FF90EF9008958930910589F05E
:100F10001CF4089739F008958A30910589F00B97F1
:100F2000B1F0089520918C0130918D0188E090E01E
:100F300014C020918E0130918F0189E090E00DC0A6
:100F400020919001309191018AE090E006C02091BB
:100F50009201309193018BE090E037FD0AC021307F
:100F6000310519F460E070E002C061E070E00C94BB
:100F70004C070895009769F0FC0101900020E9F703
:100F80003197AF01481B590BBC0184E493E00C94EA
:100F9000940080E090E00895382F209164029091B1
:100FA0006302213208F049C0809140028111FCCFD8
:100FB00042E04093400230933F023FEF30933E02C5
:100FC00010923D0220933C02A3E4B2E04CE152E0D7
:100FD000FA013E2F341B321718F43D913193F9CFAB
:100FE00010921B0220911B02990F922B90931B02CF
:100FF00090911A02913061F410921A0290911B02A2
:101000009093BB009091BC0093FDF8CF95EC01C08C
:1010100095EE9093BC00909140029230E1F3909154
:101020003E029F3F79F080913E02803241F08091F4
:101030003E02803331F084E005C081E003C082E0ED
:1010400001C083E0109242021092640210924102A9
:101050000895CF93DF93CDB7DEB728970FB6F894F6
:10106000DEBF0FBECDBF28E0EBE0F1E0DE01119660
:1010700001900D922A95E1F720914C03261710F468
:101080006FEF620FFE013196E60FF11DE60FF11DC5
:101090009081682F690F606840E084E493E02896AF
:1010A0000FB6F894DEBF0FBECDBFDF91CF910C9489
:1010B0006B030C94BA078F929F92AF92BF920F93DB
:1010C0001F93CF93DF93CDB7DEB7A1970FB6F894F8
:1010D000DEBF0FBECDBF19A2423008F44AE08E0138
:1010E0000F5D1F4F842E912CA12CB12CA5019401D2
:1010F0000E94BB16E62FB901CA0101501109EA305E
:1011000014F4E05D01C0E95CD801EC93232B242B9F
:10111000252B61F7C8010E94BA07A1960FB6F89473
:10112000DEBF0FBECDBFDF91CF911F910F91BF905A
:10113000AF909F908F900895CF92DF92EF92FF92A1
:101140000F931F93CF93DF93CDB7DEB762970FB6A0
:10115000F894DEBF0FBECDBF6C017B018A016FE743
:1011600071E0CE010D960E94100243E050E0CA9457
:10117000CD2819F46CE771E002C060E871E0CE019F
:101180000D960E94D0011A8219821C821B821E8237
:101190001D826D857E856115710531F049895A89F9
:1011A000CE0101960E94D00118861F821A861986E8
:1011B0001C861B86F701608171816115710531F014
:1011C00044815581CE0107960E94D00117FD0E94EF
:1011D00011192B853C858D819E81820F931F01966D
:1011E000449718F1602F80E00E94290884E891E07C
:1011F0000E9459088F8198850E94AF1789819A8132
:101200000E94AF178D859E850E94AF1762960FB61C
:10121000F894DEBF0FBECDBFDF91CF911F910F912C
:10122000FF90EF90DF90CF90089504311105D4F630
:10123000602F80E00E9429084B855C856F8178854E
:1012400084E493E00E9494008EE791E00E945908A4
:101250004D815E8169817A8184E493E00E949400EB
:10126000C9CF1092190210921802109242021092E5
:1012700064021092400281E080933F0210921A02B1
:1012800061E082E10E944E0261E083E10E944E0231
:10129000E9EBF0E080818E7F808380818D7F808389
:1012A00088E48093B80085E48093BC0008958F9211
:1012B0009F92AF92BF92CF92DF92EF92FF920F93E5
:1012C0001F93CF93DF93FC01C081D1812091140241
:1012D00030911502C217D3070CF04BC09E01220FAC
:1012E000331FE0911202F0911302E20FF31F80808E
:1012F0009180C170DD27F1E0CF27209719F404E633
:1013000010E002C00CE91FEF7A015B016C01040FD1
:10131000151FB801C4010E940807892B99F40E0D0E
:101320001F1DB801C4010E940807892B71F4B80180
:101330006E0D7F1DC4010E940807892BE9F023E090
:1013400030E005C021E030E002C022E030E0F501ED
:10135000808191810196821793073CF0F5011182FB
:101360001082F60180819181019691838083CE0164
:1013700005C081E090E002C08FEF9FEFDF91CF9139
:101380001F910F91FF90EF90DF90CF90BF90AF90A3
:101390009F908F900895CF93DF93CDB7DEB764977A
:1013A0000FB6F894DEBF0FBECDBF789484B58260CF
:1013B00084BD84B5816084BD85B5826085BD85B5F9
:1013C000816085BD80916E00816080936E00109277
:1013D00081008091810082608093810080918100F2
:1013E0008160809381008091800081608093800083
:1013F0008091B10084608093B1008091B0008160E1
:101400008093B00080917A00846080937A0080910C
:101410007A00826080937A0080917A008160809364
:101420007A0080917A00806880937A001092C100DF
:1014300083E0809300010E9431090E9431098AE310
:1014400091E00E94DE04898387E08A8385E391E04E
:101450000E94DE048B838DE391E00E94DE048C8386
:1014600080E491E00E94DE048D8383E491E00E9499
:10147000DE048E83CE0101960E945F04CE010796A2
:101480000E9492038F814985688590E00E94EB0459
:101490009C01A8E1B0E00E9467152A857B018C01C0
:1014A000E20EF11C011D111DA8019701ACE3B0E093
:1014B0000E9425152B857B018C01E20EF11C011D7C
:1014C000111DA80197010E9425152C85DC01CB0177
:1014D000820F911DA11DB11DBC01CD01655E7F4F25
:1014E0008F4F9F4F2CE3C22ED12CE12CF12CA70162
:1014F00096010E94BB166E83CA01B901A70196012D
:101500000E94BB166D83CA01B90128E130E040E0BA
:1015100050E00E94BB166C8380E0E3E9FEEF91E0AF
:10152000482F437009F090E061E0680F492F50E0C8
:10153000DA01A359BE4F2A173B0738F0CF01841BAD
:10154000950B280F391F862FEACF898381E0E82F7A
:10155000F0E0E959FF4FE491992319F0823009F442
:10156000EF5FF0E041E0480F2E173F0720F02E1B01
:101570003F0B842FECCF8A832F5F2B83CE01019604
:101580000E945F040E9431091092490380914E032A
:10159000823018F098E09093490380934C0362E303
:1015A00070E080E090E00E94BA0260914F0384E412
:1015B00093E00E943E0368EE73E080E090E00E94BA
:1015C000BA0260E384E493E00E9452030BE416E461
:1015D000C8010197F1F760E384E493E00E945203AD
:1015E000C8010197F1F760E384E493E00E9452039D
:1015F00083E592E00197F1F760E284E493E00E94D2
:10160000520360914903606240E084E493E00E94E9
:101610006B0384E080934A0340E06CE084E493E051
:101620000E946B0340E061E084E493E00E946B035E
:101630000BE3E02E0FE1F02EC7010197F1F712E066
:1016400010934B0340E066E084E493E00E946B0358
:1016500040E062E084E493E00E946B03C7010197DD
:10166000F1F788E080934F0360E084E493E00E9408
:101670003E0361E088E00E947E0261E089E00E9412
:101680007E0261E08AE00E947E0261E08BE00E94BF
:101690007E0260E087E00E947E0260E086E00E94B9
:1016A0007E0260E070E088E090E00E944C0760E01D
:1016B00070E089E090E00E944C0760E070E08AE012
:1016C00090E00E944C0760E070E08BE090E00E94A8
:1016D0004C0787E00E942502909304018093030148
:1016E00086E00E9425029093020180930101F89404
:1016F0001093B0001093B10084E68093B300109271
:10170000B2001093700078941093710210927502D9
:101710008091720260E00E947E0280E2282E312CCD
:1017200044244A94542C320166E471E0CE010196BF
:101730000E94100242E050E0BE016F5F7F4F809137
:101740008C0190918D010E949C0889819A810E9450
:10175000AF1765E571E0CE0101960E94100243E0EB
:1017600050E0BE016F5F7F4F80918E0190918F019D
:101770000E949C0889819A810E94AF1708E712E0B5
:1017800010931302009312028091750290E09093DF
:101790001502809314028091420390E09093170207
:1017A0008093160280917102853009F096C2809173
:1017B0007A0290917B02885891098D35910588F4C1
:1017C00080917502843041F480917C0290917D0279
:1017D0008097479708F4FEC380917502843408F01F
:1017E000E0C3809175028A3108F44FC0809178027D
:1017F00090917902843F914068F410921102109206
:10180000100240920C0250920D0260920E027092F1
:101810000F0259C080917A0290917B0285974B9775
:10182000A0F5EEE7F2E082E090E0C12CD12C760149
:10183000AC014F5F5F4F2091750230E042175307B4
:101840005CF4DF0112972D913C912750310927302C
:10185000310508F401C4CA010197959587959093C5
:101860001102809310020C972CF410921102109226
:1018700010020BC0C0920C02D0920D02E0920E0238
:10188000F0920F0284E090E0BFC4809175028A312B
:1018900008F44CC080917802909179028032934094
:1018A00008F4ABCF80917A0290917B02C69786971D
:1018B00008F4EFC33BC0C0920C02D0920D02E0923C
:1018C0000E02F0920F028BE090E09EC420813181E5
:1018D000255231092B31310508F0EBC3CC0CDD1C4E
:1018E000EE1CFF1C6894C0F802963496AC014F5F62
:1018F0005F4F2091750230E04217530754F4DF0127
:1019000012972D913C912C5031092B303105F0F27A
:10191000CA010197959587959093110280931002C3
:101920000C974CF6109211021092100280917502E1
:10193000823208F44DC080917A0290917B02069722
:10194000079708F045C0EEE7F2E082E090E0C12C96
:10195000D12C76019C012F5F3F4F4091750250E0E2
:1019600024173507E4F4DF0112974D915C9111972C
:101970004E5151094731510508F0A8C3CC0CDD1C6C
:10198000EE1CFF1C6894C0F840815181349643508E
:1019900051094530510510F40296DCCFC901019779
:1019A00095958795909311028093100240972CF49F
:1019B00010921102109210020BC0C0920C02D09231
:1019C0000D02E0920E02F0920F028CE090E01CC437
:1019D00018861F8281E090E09A8389838091750246
:1019E0008D3008F46BC049E753E0BE01695F7F4F5B
:1019F000CE0101960E945709892B09F05FC049E783
:101A000053E0BE01695F7F4FCE0101960E945709E6
:101A1000019709F053C049E753E0BE01695F7F4F6A
:101A2000CE0101960E945709892B09F047C0812CED
:101A3000912C540100E010E08091750290E0298122
:101A40003A81281739075CF549E753E0BE01695F21
:101A50007F4FCE0101960E9457097C0149E753E070
:101A6000BE01695F7F4FCE0101960E945709A1E038
:101A7000EA16F10449F4892B09F5880C991CAA1C73
:101A8000BB1C689480F808C0EF28C1F40197B1F43A
:101A9000880C991CAA1CBB1C0F5F1F4FCDCF109345
:101AA00011020093100280920C0290920D02A092FB
:101AB0000E02B0920F02E1E0F0E0BFC018861F8274
:101AC000EE24E394F12CFA82E98280911402909141
:101AD0001502181619060CF058C0E0911202F09188
:101AE000130282E090E09A838983828193818997AF
:101AF0004E9708F04AC083E090E09A8389838481FE
:101B000095810B970A9708F040C04CEB51E0BE015D
:101B1000695F7F4FCE0101960E945709892BA9F575
:101B20004CEB51E0BE01695F7F4FCE0101960E94F0
:101B30005709019751F5812C912C540100E010E0D8
:101B400029813A8180911402909115022817390752
:101B50000CF0FFC24CEB51E0BE01695F7F4FCE013C
:101B600001960E9457096C010330110509F0BBC2B0
:101B70004CEB51E0BE01695F7F4FCE0101960E94A0
:101B80005709C816D90609F4AEC2E0911202F091C5
:101B9000130282819381C6978697D8F484819581B8
:101BA0004B974597B0F4DF0116967F0136ECE30EB4
:101BB000F11C20E030E040E050E060E070E080E0C8
:101BC00090E00D911C9111970950110908301105F1
:101BD000C8F180917502893340F0828193818957E1
:101BE00091098335910508F439C4809175028232D8
:101BF00009F01BC3828193810A97099708F015C3E6
:101C000020917502CF01820F911D820F911DDC0181
:101C100012978D919C910A97099708F006C310922C
:101C200011021092100240920C0250920D0260922A
:101C30000E0270920F02E6E0F0E0F0930902E093EA
:101C400008022EC012960D911C9113970151110993
:101C50000D30110508F08CC201E00E94DD162160F4
:101C60001496AE15BF0509F0ACCF20930C0230934B
:101C70000D0240930E0250930F0200E20E94F816EC
:101C800020930A0230930B0285E090E090930902C2
:101C90008093080280E390E09093110280931002F9
:101CA00080910C0290910D02A0910E02B0910F0252
:101CB0008F3BE0E49E07EFEFAE07B10509F0A9C244
:101CC00089E090E00E9485078AE090E00E94850705
:101CD00082E0809371021092750260E080E00E94C1
:101CE0002908CE0101960E9492038C818A3020F44B
:101CF00084E691E00E9459086C8170E080E090E0F9
:101D00004AE00E945B0883E591E00E9459088D81BA
:101D10008A3020F484E691E00E9459086D8170E0D9
:101D200080E090E04AE00E945B0883E591E00E9439
:101D300059088E818A3020F484E691E00E94590887
:101D40006E8170E080E090E04AE00E945B08CE0186
:101D500001960E94920360E08CE00E9429088B812A
:101D60008A3020F48EE791E00E9459086B8170E080
:101D700080E090E04AE00E945B0886E691E00E94E5
:101D800059086A8170E080E090E04AE00E945B08B8
:101D900086E691E00E9459088EE791E00E9459087A
:101DA00089814B816A8190E00E94EB04069667E08E
:101DB00070E00E94A716833099F038F4813069F002
:101DC0008230C1F48BE691E013C0853079F058F091
:101DD000863081F487E791E00BC088E691E008C087
:101DE0008EE691E005C081E791E002C084E791E0D2
:101DF0000E9459082FB7F894809188019091890129
:101E0000A0918A01B0918B012FBF40919801509110
:101E1000990160919A0170919B01841B950BA60B0F
:101E2000B70B813D9740A105B10508F451C02FB70C
:101E3000F8948091880190918901A0918A01B091D4
:101E40008B012FBF8093980190939901A0939A01E1
:101E5000B0939B0180910001F0E48F9FC001112499
:101E600080937C0080917A00806480937A008091D6
:101E70007A0086FDFCCF109178000091790061E036
:101E800088E00E942908612F70E0702B072E000C5B
:101E9000880B990B0E94081423EC35EF44E151E4C0
:101EA0000E94E3150E945C1680E090E04AE00E94E8
:101EB0005B08E0914403F09145030190F081E02D2F
:101EC0006FED84E493E009958AE791E00E94590858
:101ED00087E00E9425027C019093970180939601F0
:101EE00086E00E9425028C019093950180939401D5
:101EF0008091030190910401892B61F421E0E216A5
:101F0000F10441F488E090E00E948507F09204011A
:101F1000E09203018091030190910401019751F433
:101F2000EF2841F488E090E00E94850710920401B8
:101F3000109203018091010190910201892B79F4A3
:101F40000130110561F489E090E00E9485078AE084
:101F500090E00E9485071093020100930101809197
:101F6000010190910201019771F4012B61F489E064
:101F700090E00E9485078AE090E00E948507109219
:101F80000201109201016AE070E080E090E00E949E
:101F9000BA0280E090E0892B09F4C6CB0E940000D1
:101FA000C3CB80917C0290917D02825491098E97DF
:101FB00008F017CC80E090E040E050E0BA01FC016E
:101FC000E258FD4F208131812950310929303105F6
:101FD000B0F007CC80917E0290917F02099709971B
:101FE00008F0FACB109211021092100240920C02EB
:101FF00050920D0260920E0270920F0213C1FC010A
:10200000E058FD4F208131812751310922313105BE
:10201000B0F4440F551F661F771F41600496803847
:10202000910569F6309211022092100240930C0241
:1020300050930D0260930E0270930F02F3C0208143
:102040003181265031092730310508F0CACB440FC1
:10205000551F661F771FE2CF20813181235131093F
:102060002F30310548F4CC0CDD1CEE1CFF1C6894AD
:10207000C0F802963496DCCB208131812A50310998
:102080002930310508F001CCCC0CDD1CEE1CFF1C06
:10209000F0CF80917C0290917D02C697869708F0E0
:1020A00045CCE0E8F2E083E090E0C12CD12C760151
:1020B0001DCC208131812C5031092A30310508F0A6
:1020C00035CCCC0CDD1CEE1CFF1C0ECC4D915C9174
:1020D0004C5051094B30510508F07ACCCC0CDD1C2A
:1020E000EE1CFF1C51CC4CEB51E0BE01695F7F4FF1
:1020F000CE0101960E9457097C010330110569F455
:102100004CEB51E0BE01695F7F4FCE0101960E940A
:102110005709E816F90609F038CDC114D10459F46D
:10212000EA94EF2809F031CD880C991CAA1CBB1C3D
:10213000689480F80BC0CA94CD2809F026CDEF280A
:1021400009F023CD880C991CAA1CBB1C0F5F1F4FE4
:10215000F7CC109311020093100280920C0290921F
:102160000D02A0920E02B0920F0282E090E04CC0ED
:1021700012960D911C911397045011090530110509
:1021800008F027CD01E00E94DD166ACDA80142507B
:102190005109DA014D915C9149505109483051057E
:1021A00008F0B5C0BC016F5F7F4FD8014D915C91C5
:1021B000475051094730510508F0B6C2220F331F6E
:1021C000216002960C5F1F4F4091750250E0445011
:1021D000510984179507D4F20197959587959093A7
:1021E0001102809310028A970CF491C0C901330F39
:1021F000AA0BBB0B80930C0290930D02A0930E02CE
:10220000B0930F0289E090E0909309028093080256
:1022100047CD85319A4EAF4FB10509F059CD88E0D1
:1022200090E054CD83E090E0EFCF82819381895795
:10223000910983359105D0F4809175028132B0F017
:1022400084819581CA97899788F49F012A5F3F4FBF
:10225000C12CD12C760143E050E0D9016D917C91E5
:102260006A5071096930710508F457C18281938100
:102270008C549109C59778F480917502843031F4BB
:10228000848195818097479708F4AEC1809175024B
:10229000843408F090C180917502863460F18281A7
:1022A00093810C970B9708F4EAC125C0D9011296C7
:1022B0006D917C9113976E5171096731710508F02A
:1022C00014C2D701C601880F991FAA1FBB1F6C013A
:1022D0007D016894C0F84E5F5F4F2C5F3F4F4534DF
:1022E000510509F4E7C1D9016D917C916C507109D8
:1022F0006B307105D8F280917502883540F082818B
:102300009381855891098B35910508F4FEC1809120
:1023100075028032E1F48281938106970697B8F4C2
:10232000848195810997099790F49F012A5F3F4F17
:10233000BF01625C7F4FC12CD12C7601D9014D9138
:102340005C91465051094630510508F4FAC1E090BD
:102350001402F0901502F88AEF8687010630110505
:102360000CF4B6CC8F010A5F1F4F95ECC92E9DE986
:10237000D92E9CE1E92E91E8F92E23E030E03E874A
:102380002D87D8016D917C91F8013497A080B180A0
:1023900080E090E00E940614698B7A8B8B8B9C8B7B
:1023A000B50180E090E00E9406144B015C012DEC29
:1023B0003CEC4CE45FE30E9467149B01AC0169892B
:1023C0007A898B899C890E94011487FD19C02DECA4
:1023D0003CEC4CE45FE369897A898B899C890E9493
:1023E00067149B01AC01C501B4010E940114E82FE0
:1023F000880FFF0BEE27FF0FEE1FFF27319602C05D
:10240000E0E0F0E0A701960163E971E080E091E08F
:102410000E948B166F01FF0FEE08FF08C626D72615
:10242000E826F926ED85FE853196FE87ED870E5F5D
:102430001F4F2F853889E217F30709F0A2CFC0920A
:102440000C02D0920D02E0920E02F0920F02309236
:102450001102209210028FEF9FEFD6CE84819581DA
:10246000CA97899708F0C1CB9F012A5F3F4FC12CC3
:10247000D12C760143E050E0D9016D917C916A50F6
:1024800071096930710508F0B0CBD90112966D91D0
:102490007C911397665171096131710570F5D7010F
:1024A000C601880F991FAA1FBB1F6C017D0168948C
:1024B000C0F84E5F5F4F2C5F3F4F4B335105E1F645
:1024C0009F012A583F4FD9012D913C912A50310943
:1024D0002930310508F089CB2CE130E0309311022E
:1024E00020931002C0920C02D0920D02E0920E02D4
:1024F000F0920F028AE090E087CED90112966D919A
:102500007C911397665071096730710508F06DCBA7
:10251000CC0CDD1CEE1CFF1CCCCFD90112966D91AA
:102520007C9113976651710961317105A0F5D7014E
:10253000C601880F991FAA1FBB1F6C017D016894FB
:10254000C0F84E5F5F4F2C5F3F4F4332510509F09B
:1025500084CE9F012A5B3F4FD9012D913C912A5097
:1025600031092930310508F081CEE0E1F0E0F09347
:102570001102E0931002C0920C02D0920D02E09280
:102580000E02F0920F0256E0E52EF12CF0920902B5
:10259000E092080285CBD90112966D917C91139738
:1025A000665071096730710508F060CECC0CDD1CF7
:1025B000EE1CFF1CC6CF8481958189549109C39775
:1025C00008F069CE9F012A5F3F4FBF016A577F4FD6
:1025D000C12CD12C7601D9014D915C914950510902
:1025E00049305105A0F057CE868197810997099708
:1025F00008F04CCE109211021092100240920C0280
:1026000050920D0260920E0270920F0225C0D90105
:1026100012964D915C9113974651510941315105E4
:10262000F0F4D701C601880F991FAA1FBB1F6C01C8
:102630007D016894C0F82C5F3F4F2617370759F685
:102640003092110220921002C0920C02D0920D0220
:10265000E0920E02F0920F02E7E0F0E0EECAD9013C
:1026600012964D915C911397465051094730510590
:1026700008F011CECC0CDD1CEE1CFF1CDCCF8481DD
:1026800095810997099708F036CE868197818C97B6
:102690004F9708F030CE8085918589974D9708F047
:1026A0002ACE9F01265F3F4FC12CD12C760145E0F9
:1026B00050E019CE9F0126573F4FD9012D913C91F3
:1026C0002C5031092B30310508F015CE3092110213
:1026D00020921002C0920C02D0920D02E0920E02E3
:1026E000F0920F0288E090E08FCDD90112966D91A3
:1026F0007C911397695071096930710508F0FBCD21
:10270000CC0CDD1CEE1CFF1CE6CD8481958182542F
:1027100091098E9708F0FBCD8F01045C1F4F8DE16E
:1027200090E020E030E050CDD8014D915C914851CF
:1027300051094231510510F0CB014ECD220F331F0C
:1027400040CDD90112964D915C9113974951510991
:102750004331510508F5D701C601880F991FAA1FFB
:10276000BB1F6C017D016894C0F82C5F3F4F26179A
:10277000370709F0E3CDEEE0F0E0F0931102E093CB
:102780001002C0920C02D0920D02E0920E02F09262
:102790000F028FE090E038CDD90112964D915C91F7
:1027A0001397495051094930510508F0D0CDCC0C50
:1027B000DD1CEE1CFF1CD9CFE5E6F2E0138212828D
:1027C00088EE93E0A0E0B0E084839583A683B7838E
:1027D00087E191E091838083E4E4F3E01382128245
:1027E00089E291E0918380838EE3848384E1818711
:1027F00084E082871386E1E7F2E082E0818313823E
:1028000008950E94431408F481E00895E89409C0F3
:1028100097FB3EF490958095709561957F4F8F4F13
:102820009F4F9923A9F0F92F96E9BB279395F69529
:10283000879577956795B795F111F8CFFAF4BB0FA7
:1028400011F460FF1BC06F5F7F4F8F4F9F4F16C00B
:10285000882311F096E911C0772321F09EE8872F95
:10286000762F05C0662371F096E8862F70E060E051
:102870002AF09A95660F771F881FDAF7880F9695CA
:10288000879597F90895990F0008550FAA0BE0E86E
:10289000FEEF16161706E807F907C0F01216130622
:1028A000E407F50798F0621B730B840B950B39F462
:1028B0000A2661F0232B242B252B21F408950A26C8
:1028C00009F4A140A6958FEF811D811D08950E94F6
:1028D0007A140C94EB140E94DD1438F00E94E41476
:1028E00020F0952311F00C94D4140C94DA141124D4
:1028F0000C941F150E94FC1470F3959FC1F3950F63
:1029000050E0551F629FF001729FBB27F00DB11D73
:10291000639FAA27F00DB11DAA1F649F6627B00D03
:10292000A11D661F829F2227B00DA11D621F739FEC
:10293000B00DA11D621F839FA00D611D221F749FFA
:102940003327A00D611D231F849F600D211D822F41
:10295000762F6A2F11249F5750409AF0F1F0882368
:102960004AF0EE0FFF1FBB1F661F771F881F915095
:102970005040A9F79E3F510580F00C94D4140C945C
:102980001F155F3FE4F3983ED4F3869577956795DE
:10299000B795F795E7959F5FC1F7FE2B880F911DBF
:1029A0009695879597F9089597F99F6780E870E065
:1029B00060E008959FEF80EC089500240A941616B5
:1029C000170618060906089500240A94121613061D
:1029D000140605060895092E0394000C11F48823AB
:1029E00052F0BB0F40F4BF2B11F460FF04C06F5FC7
:1029F0007F4F8F4F9F4F089557FD9058440F551F9D
:102A000059F05F3F71F04795880F97FB991F61F070
:102A10009F3F79F087950895121613061406551FE7
:102A2000F2CF4695F1DF08C0161617061806991F53
:102A3000F1CF86957105610508940895E894BB2748
:102A400066277727CB0197F908950E946715A59F00
:102A5000900DB49F900DA49F800D911D1124089599
:102A60002F923F924F925F926F927F928F929F929E
:102A7000AF92BF92CF92DF92EF92FF920F931F938C
:102A8000CF93DF93CDB7DEB7CA1BDB0B0FB6F8943D
:102A9000DEBF0FBECDBF09942A88398848885F847D
:102AA0006E847D848C849B84AA84B984C884DF80EE
:102AB000EE80FD800C811B81AA81B981CE0FD11DD2
:102AC0000FB6F894DEBF0FBECDBFED010895A29FF3
:102AD000B001B39FC001A39F700D811D1124911DF2
:102AE000B29F700D811D1124911D08955058BB2770
:102AF000AA270E948E150C94EB140E94DD1438F066
:102B00000E94E41420F039F49F3F19F426F40C9449
:102B1000DA140EF4E095E7FB0C94D414E92F0E942C
:102B2000FC1458F3BA17620773078407950720F05F
:102B300079F4A6F50C941E150EF4E0950B2EBA2F21
:102B4000A02D0B01B90190010C01CA01A0011124B3
:102B5000FF27591B99F0593F50F4503E68F11A165F
:102B6000F040A22F232F342F4427585FF3CF4695F0
:102B700037952795A795F0405395C9F77EF41F1612
:102B8000BA0B620B730B840BBAF09150A1F0FF0FDC
:102B9000BB1F661F771F881FC2F70EC0BA0F621FC8
:102BA000731F841F48F4879577956795B795F795B8
:102BB0009E3F08F0B0CF9395880F08F09927EE0F4D
:102BC0009795879508950E94F7150C94EB140E9431
:102BD000E41458F00E94DD1440F029F45F3F29F01E
:102BE0000C94D41451110C941F150C94DA140E94F7
:102BF000FC1468F39923B1F3552391F3951B550BFE
:102C0000BB27AA2762177307840738F09F5F5F4FBF
:102C1000220F331F441FAA1FA9F335D00E2E3AF0FE
:102C2000E0E832D091505040E695001CCAF72BD016
:102C3000FE2F29D0660F771F881FBB1F2617370767
:102C40004807AB07B0E809F0BB0B802DBF01FF2799
:102C500093585F4F3AF09E3F510578F00C94D4148E
:102C60000C941F155F3FE4F3983ED4F38695779557
:102C70006795B795F7959F5FC9F7880F911D969552
:102C8000879597F90895E1E0660F771F881FBB1FAE
:102C9000621773078407BA0720F0621B730B840B5B
:102CA000BA0BEE1F88F7E09508950E945C166894B1
:102CB000B1110C941F1508950E94041588F09F57B8
:102CC00098F0B92F9927B751B0F0E1F0660F771F50
:102CD000881F991F1AF0BA95C9F714C0B13091F046
:102CE0000E941E15B1E008950C941E15672F782FD1
:102CF0008827B85F39F0B93FCCF38695779567950B
:102D0000B395D9F73EF490958095709561957F4F76
:102D10008F4F9F4F0895DB018F939F930E9425153E
:102D2000BF91AF91A29F800D911DA39F900DB29F67
:102D3000900D11240895991B79E004C0991F9617EE
:102D400008F0961B881F7A95C9F780950895AA1BED
:102D5000BB1B51E107C0AA1FBB1FA617B70710F086
:102D6000A61BB70B881F991F5A95A9F780959095B8
:102D7000BC01CD010895A1E21A2EAA1BBB1BFD01C7
:102D80000DC0AA1FBB1FEE1FFF1FA217B307E4074A
:102D9000F50720F0A21BB30BE40BF50B661F771FA2
:102DA000881F991F1A9469F7609570958095909582
:102DB0009B01AC01BD01CF0108950F93083090F045
:102DC000982F872F762F652F542F432F322F2227AE
:102DD0000850F4CF220F331F441F551F661F771F63
:102DE000881F991F0A95B2F70F91089597FB10F865
:102DF000169400080F93083098F00850232F342FB2
:102E0000452F562F672F782F892F902DF4CF0594BB
:102E10009795879577956795579547953795279512
:102E20000A95AAF70F910895EE0FFF1F0590F491F0
:102E3000E02D0994CF93DF938230910510F482E066
:102E400090E0E0915203F091530320E030E0C0E0C5
:102E5000D0E0309711F14081518148175907C0F0F7
:102E60004817590761F482819381209719F09B8359
:102E70008A832BC0909353038093520326C021155D
:102E8000310519F04217530718F49A01BE01DF010A
:102E9000EF010280F381E02DDCCF2115310509F12E
:102EA000281B390B2430310590F412968D919C919A
:102EB00013976115710521F0FB019383828304C090
:102EC0009093530380935203FD01329644C0FD0159
:102ED000E20FF31F81939193225031092D933C937C
:102EE0003AC02091500330915103232B41F420919B
:102EF0000701309108013093510320935003209132
:102F00000501309106012115310541F42DB73EB779
:102F10004091090150910A01241B350BE0915003A7
:102F2000F0915103E217F307A0F42E1B3F0B281773
:102F3000390778F0AC014E5F5F4F2417350748F032
:102F40004E0F5F1F50935103409350038193919311
:102F500002C0E0E0F0E0CF01DF91CF9108950F9340
:102F60001F93CF93DF93009709F48CC0FC01329735
:102F7000138212820091520310915303011511051F
:102F800081F420813181820F931F20915003309171
:102F900051032817390779F5F0935103E093500353
:102FA00071C0D80140E050E0AE17BF0750F4129650
:102FB0002D913C911397AD012115310509F1D901EE
:102FC000F3CF9D01DA013383228360817181860F03
:102FD000971F8217930769F4EC0128813981260F26
:102FE000371F2E5F3F4F318320838A819B819383DC
:102FF0008283452B29F4F0935303E093520342C09C
:103000001396FC93EE931297ED01499159919E010D
:10301000240F351FE217F30771F480819181840F2B
:10302000951F029611969C938E938281938113969D
:103030009C938E931297E0E0F0E0D80112968D9168
:103040009C911397009719F0F8018C01F6CF8D91A0
:103050009C9198012E5F3F4F820F931F2091500348
:10306000309151032817390769F4309729F41092E9
:1030700053031092520302C0138212821093510321
:1030800000935003DF91CF911F910F910895A0E01D
:10309000B0E0EDE4F8E10C943415EC01009721F474
:1030A000CB010E941A17B8C0FC01E60FF71F9C0164
:1030B00022503109E217F30708F4ACC0D9010D9191
:1030C0001C91119706171707B0F00530110508F489
:1030D0009FC0C80104978617970708F499C002504B
:1030E0001109061B170B019311936D937C93CF016C
:1030F0000E94AF178DC05B01A01AB10A4C01800E6F
:10310000911EA0915203B091530340E050E0E12C96
:10311000F12C109709F44AC0A815B905D1F56D90A6
:103120007C901197630182E0C80ED11CCA14DB04A5
:1031300080F1A3014A195B096A0182E0C80ED11C23
:103140001296BC9012971396AC91B5E0CB16D104B1
:1031500040F0B282A38351834083D9016D937C9365
:103160000AC00E5F1F4FC301800F911FF9019183A9
:103170008083EB2DFA2FE114F10431F0D70113967F
:10318000FC93EE93129744C0F0935303E0935203E1
:103190003FC08D919C9111974817590708F4AC01D5
:1031A0007D0112960D90BC91A02DB3CF809150035C
:1031B0009091510388159905E1F446175707C8F413
:1031C0008091050190910601009741F48DB79EB75B
:1031D0004091090150910A01841B950BE817F907EA
:1031E000C8F4F0935103E0935003F90171836083B5
:1031F0000FC0CB010E941A177C01009759F0A8015B
:10320000BE010E941619CE010E94AF17C70104C06B
:10321000CE0102C080E090E0CDB7DEB7EEE00C94C6
:10322000501581E090E0F8940C942619FB01DC0124
:1032300002C001900D9241505040D8F70895FB0113
:10324000DC0101900D920020E1F70895F894FFCF82
:103250000101000100000054038000000040001440
:10326000005400000000009B016B01CB013F016393
:10327000014F014001000000008C039400CB01CA03
:10328000014A756C20323020323031380032303A09
:1032900034373A303800486C61766E69202020203F
:1032A0002020203A00506F64737665746C656E69F7
:1032B00020203A0030002E00506F005574005374E7
:1032C00000437400506100536F0043004F4E2000D4
:0832D0004F4646004E4E00007F
:107E00001F92CDB7DEB7112484B714BE982F9D7092
:107E100009F0D7D085E08093810082E08093C00094
:107E200088E18093C10086E08093C20082E2809363
:107E3000C4008EE0B1D0259A26E080E39CEF31E0CB
:107E4000909385008093840036BBB09BFECF1D9A33
:107E5000A8952150A9F7812C912C93E0F92EEE24BE
:107E6000E39425E0D22E31E1C32E8AD0813479F417
:107E700087D0898397D08981823811F482E005C048
:107E8000813811F486E001C083E073D06FC0823482
:107E900011F484E103C0853419F485E08BD066C009
:107EA000853541F46DD0882E6BD0912C982A880CA2
:107EB000991C5BC0863521F484E07CD080E0E5CF5E
:107EC000843609F036C05CD05BD0B82E59D0A82ECD
:107ED00000E011E055D0F80181938F01BE12FACF76
:107EE00061D0F5E4AF1201C0FFCFF401F7BEE89511
:107EF00007B600FCFDCFB401A0E0B1E02C911296D2
:107F0000AD0141505109FA01808130E0382BFB016D
:107F10000901E7BEE89511246E5F7F4FBA12EECFDC
:107F2000F401D7BEE89507B600FCFDCFC7BEE895C3
:107F30001DC0843769F424D023D0B82E21D032D08C
:107F40008401F80185918F0114D0BA94D1F70EC045
:107F5000853739F427D08EE10CD085E90AD08FE03F
:107F600094CF813511F488E017D01CD080E101D086
:107F70007CCF9091C00095FFFCCF8093C600089500
:107F80008091C00087FFFCCF8091C00084FD01C0BC
:107F9000A8958091C6000895E0E6F0E098E190830E
:107FA00080830895EDDF803219F088E0F5DFFFCFA0
:107FB00084E1DFCFCF93C82FE3DFC150E9F7CF9142
:0E7FC000F1CF282E80E0E8DFE0E0FF270994F3
:027FFE00020679
:0400000300007E007B
:00000001FF
